:020000040800F2
:100000000050002081000008B1000008B100000885
:10001000B1000008B1000008B1000008B1000008FC
:10002000B1000008B1000008B1000008B1000008EC
:10003000B1000008B1000008B1000008B1000008DC
:10004000B1000008B1000008B1000008B1000008CC
:10005000B1000008B1000008B1000008B1000008BC
:10006000B1000008B1000008B1000008B1000008AC
:10007000B1000008B1000008B1000008B10000089C
:100080000C480D490D4A884206D0884204D052F8E7
:10009000043B40F8043BF8E709480A494FF00002E6
:1000A000884202D040F8042BFAE700F0C1F8FEE7DE
:1000B000FEE700000000002000000020E802000829
:1000C000000000201C00002008B5064B1A783AB941
:1000D000054A1AB10548AFF30080024B01221A709D
:1000E00008BD00BF0000002000000000C80200089A
:1000F00008B5034B1BB103490348AFF3008008BDAB
:100100000000000004000020C802000880B485B090
:1001100000AF03460A46FB711346BB71164B1B68C2
:10012000154A43F008031360FB799B00FB60134BF7
:100130001A680F21FB6801FA03F3DB430F491340F0
:100140000B60BB79012B09D10C4B1A680221FB68AB
:1001500001FA03F3094913430B6008E0074B1A68DF
:100160000421FB6801FA03F3044913430B6000BF49
:100170001437BD4680BC704718100240000C014087
:1001800080B483B000AF03460A46FB711346BB71CF
:10019000BB79012B06D1FB79084A012101FA03F34F
:1001A000136005E0FB79064A012101FA03F31360AD
:1001B00000BF0C37BD4680BC704700BF100C01402B
:1001C000140C014080B483B000AF0346FB71084BB0
:1001D0001A68FB7922FA03F303F00103002B01D024
:1001E000012300E0002318460C37BD4680BC704751
:1001F000080C014080B485B000AF78600023FB603C
:100200000CE0FB680133FB600023BB6002E0BB68CD
:100210000133BB60BB68B3F57A7FF8D3FB687A68BB
:100220009A42EED800BF00BF1437BD4680BC70476D
:1002300080B582B000AF4FF496737B600123FB70F2
:1002400001210620FFF762FF00210720FFF75EFF74
:1002500001210620FFF794FF0720FFF7B3FF0346B5
:10026000BB70FB78012B1ED1BB78002B1BD1142057
:10027000FFF7C0FF0720FFF7A5FF0346002B12D1B1
:100280007B68B3F5967F03D14FF4FA737B600AE085
:100290007B68B3F5FA7F03D14FF47A737B6002E099
:1002A0004FF496737B60BB78FB7000210620FFF74C
:1002B00067FF7868FFF79EFF01210620FFF760FFC8
:1002C0007868FFF797FFC7E7F8B500BFF8BC08BC30
:1002D0009E467047F8B500BFF8BC08BC9E46704704
:0402E000F100000821
:0402E400C900000845
:04000005080000816E
:00000001FF
